:1000000000000120B9390000E1390000E3390000A7
:10001000E5390000E7390000E93900000000000080
:10002000000000000000000000000000EB390000AC
:10003000ED39000000000000EF390000F139000048
:10004000A11B0000F3390000F3390000F339000070
:10005000F3390000F339000079240000F33900007F
:10006000F3390000F3390000F3390000F3390000E0
:10007000F3390000F3390000F3390000F3390000D0
:10008000C92700009D150000F3390000F339000076
:10009000DD150000F3390000F3390000F3390000EA
:1000A000F3390000F3390000F3390000F3390000A0
:1000B000F3390000F33900000000000000000000E8
:1000C000F3390000F3390000F3390000F339000080
:1000D000F3390000F3390000F3390000000000009C
:1000E0000000000000000000000000000000000010
:1000F0000000000000000000000000000000000000
:1001000000000000000000000000000000000000EF
:1001100000000000000000000000000000000000DF
:1004000010B5054C237833B9044B13B10448AFF34E
:1004100000800123237010BD700000200000000048
:10042000683A00000C4B43B10C480D4910B5AFF3CE
:1004300000800C48036823B910BD0A48036833B92B
:100440007047094B002BF7D0BDE810401847064B0A
:10045000002BF5D0184700BF00000000683A0000EC
:10046000740000206C00002000000000154B002BE1
:1004700008BF134B9D46A3F5803A00218B460F46DB
:100480001348144A121A00F063F80F4B002B00D0E7
:1004900098470E4B002B00D0984700200021040005
:1004A0000D000D48002802D00C48AFF3008000F08A
:1004B0002BF82000290002F07BFF00F011F800BFAC
:1004C0000000080000000120000000000000000003
:1004D0007000002024030020000000000000000045
:1004E00008B5074B044613B10021AFF30080054B5C
:1004F0001868836A03B19847204600F031F800BFBE
:10050000000000000C3A000070B50D4E0D4CA41B0D
:10051000A4100025A54209D10B4E0C4C03F06AFA39
:10052000A41BA4100025A54205D170BD56F82530A6
:1005300098470135EEE756F8253098470135F2E740
:100540006400002064000020640000206800002097
:1005500002440346934200D1704703F8011BF9E7B8
:10056000FEE700BF80B588B000AF78600023FB775E
:100570004BE02A4B1A68FB7FDB001344BB61BB696D
:100580001B781A46012393407B61254B1A687B69CF
:100590001340002B36D07B69DA43214B1B68134094
:1005A0001F4A1360BB691B78184601F053FF0346CE
:1005B000FB74BB691B781A46012393401A46194BFA
:1005C0001B681340FA7CB96909788A40934219D1B3
:1005D000FB7CBA695278012A0CBF01220022D2B2F8
:1005E00093420CBF01230023DBB2FB60BB695B6855
:1005F000002B07D0BB695B68BA691278F968C9B289
:1006000010469847FB7F0133FB77074B1B78FA7F37
:100610009A42AED300BF2037BD4680BD8C0000207B
:10062000BC000020B80000209000002080B584B0FD
:1006300000AF78600B46FB7001227B6802FA03F37F
:10064000FB601E4B184601F0CFF8B860BB68002B6A
:1006500030D11B4B1A68FB681340002B22D17868FD
:1006600001F0F8FE0346002B06D0164B1A68FB6813
:100670001343144A136006E0FB68DA43114B1B680E
:100680001340104A13600E4B1A68FB6813430C4A60
:1006900013600A480C4B1B680022194601F06EF8E3
:1006A000B86008E0FB68DA43054B1B681340044A56
:1006B000136000E000BF1037BD4680BD98000020E9
:1006C000BC000020B80000209400002080B588B055
:1006D00000AFF8600B467A60FB727B68042B01D890
:1006E000072349E001F0DEFD034683F00103DBB29E
:1006F000002B07D001F09EFDF861FB69002B01D0B3
:10070000FB6939E01E4AFB6813601E4AFB7A1370CE
:100710001D4A7B6813601D4B00221A601C4B00228F
:100720001A601EE0FB7ADB00FA681344BB61032306
:100730003B7500237B750023BB750023FB75BB69EC
:100740009B787B75BB691B78184607F11403114A27
:10075000194601F0B9FDF861FB69002B01D0FB6976
:100760000AE0FB7A5A1EFA72002BDBD10A4A0021FA
:100770000A4800F0B5FF034618462037BD4680BD45
:100780008C0000209000002094000020B800002081
:10079000BC0000202D06000065050000103A000096
:1007A00080B582B000AF00237B600CE00B4B1A6871
:1007B0007B68DB0013441B780121184601F0DEFD45
:1007C0007B6801337B60064B1B781A467B689A4234
:1007D000ECD8002318460837BD4680BD8C000020A9
:1007E0009000002080B586B000AF78600023BB8108
:1007F00000233B617B687B6107F10C031A460021F3
:1008000044F2010000F018F800BF1837BD4680BD63
:1008100080B400AFBFF34F8F0549054BDB6803F48D
:10082000E062044B1343CB60BFF34F8F00BFFDE783
:1008300000ED00E00400FA0580B584B000AFF86078
:10084000B9607A60FFF7E4FF00BF1037BD4680BD96
:1008500080B483B000AF0346FB71094997F90730B4
:100860005B09FA7902F01F02012000FA02F241F856
:10087000232000BF0C37BD465DF8047B704700BFE6
:1008800000E100E080B483B000AF0346FB7109498A
:1008900097F907305B09FA7902F01F02012000FA8C
:1008A00002F2203341F8232000BF0C37BD465DF82B
:1008B000047B704700E100E080B483B000AF0346E2
:1008C000FB71094997F907305B09FA7902F01F02B9
:1008D000012000FA02F2403341F8232000BF0C3718
:1008E000BD465DF8047B704700E100E080B483B052
:1008F00000AF0346FB71094997F907305B09FA79A4
:1009000002F01F02012000FA02F2603341F82320B6
:1009100000BF0C37BD465DF8047B704700E100E086
:1009200080B483B000AF03463960FB7197F907309C
:10093000002B0BDA0D49FB7903F00F03043B3A68F7
:10094000D2B25201D2B20B441A7609E0084997F9A3
:1009500007303A68D2B25201D2B20B4483F8002376
:1009600000BF0C37BD465DF8047B704700ED00E02A
:1009700000E100E080B483B000AF0346FB7197F95B
:100980000730002B0ADA0D4AFB7903F00F03043B12
:1009900013441B7EDBB25B09DBB208E0084A97F91F
:1009A0000730134493F80033DBB25B09DBB218461F
:1009B0000C37BD465DF8047B704700BF00ED00E0DA
:1009C00000E100E080B483B000AF78607B6803F0A2
:1009D0000303002B0CBF01230023DBB218460C37A6
:1009E000BD465DF8047B704780B584B000AFEFF37F
:1009F00005837B607B68C3F30803FB60FB68002B07
:100A00000AD0FB68103BBB60BB685BB21846FFF7BF
:100A1000B1FF0346DBB200E00F2318461037BD4696
:100A200080BD000080B582B000AF7860054A7B6869
:100A3000C2F8083506211120FFF772FF00BF083702
:100A4000BD4680BD0010014080B582B000AF2D4B87
:100A50004FF48032C3F844232A4B4FF48032C3F85A
:100A600004231120FFF742FF1120FFF7F1FE254B71
:100A700001221A602F237B607B681846013800BF73
:100A800000BF00BF00BF00BF00BF00BF00BF00BF6E
:100A900000BF00BF00BF00BF00BF00BF00BF00BF5E
:100AA00000BF00BF00BF00BF00BF00BF00BF00BF4E
:100AB00000BF00BF00BF00BF00BF00BF00BF00BF3E
:100AC00000BF00BF00BF00BF00BF00BF00BF00BF2E
:100AD00000BF00BF00BF00BF00BF00BF00BF00BF1E
:100AE00000BF00BF00BF00BF00BF00BF00BF00BF0E
:100AF00000BFC3D1044B01221A7000BF0837BD46A6
:100B000080BD00BF00100140E000002080B582B031
:100B100000AF1120FFF7B6FE4C4B4FF48032C3F804
:100B200048234A4B4FF48032C3F80823474B012235
:100B30005A602F237B607B681846013800BF00BFD6
:100B400000BF00BF00BF00BF00BF00BF00BF00BFAD
:100B500000BF00BF00BF00BF00BF00BF00BF00BF9D
:100B600000BF00BF00BF00BF00BF00BF00BF00BF8D
:100B700000BF00BF00BF00BF00BF00BF00BF00BF7D
:100B800000BF00BF00BF00BF00BF00BF00BF00BF6D
:100B900000BF00BF00BF00BF00BF00BF00BF00BF5D
:100BA00000BF00BF00BF00BF00BF00BF00BF00BF4D
:100BB000C3D1264B01229A60254B00221A602F23B5
:100BC0003B603B681846013800BF00BF00BF00BF54
:100BD00000BF00BF00BF00BF00BF00BF00BF00BF1D
:100BE00000BF00BF00BF00BF00BF00BF00BF00BF0D
:100BF00000BF00BF00BF00BF00BF00BF00BF00BFFD
:100C000000BF00BF00BF00BF00BF00BF00BF00BFEC
:100C100000BF00BF00BF00BF00BF00BF00BF00BFDC
:100C200000BF00BF00BF00BF00BF00BF00BF00BFCC
:100C300000BF00BF00BF00BF00BF00BFC3D1054B56
:100C400000221A7000BF0837BD4680BD0010014069
:100C5000CC000020E000002080B400AF034BD3F8AC
:100C600004351846BD465DF8047B7047001001400E
:100C700080B483B000AF786039607A683B68D31A7B
:100C800023F07F4318460C37BD465DF8047B704760
:100C900080B483B000AF7860044A7B68C2F8403506
:100CA00000BF0C37BD465DF8047B70470010014063
:100CB00080B487B000AF7860294B1B68002B03D14C
:100CC000274A7B68136045E07B681A68244B1B68E1
:100CD0001B689A4210D8224B1B68214A126811687F
:100CE0007A6812688A1A1A601D4B1A687B68DA6182
:100CF0001B4A7B6813602DE07B681B68FB60184B08
:100D00001B687B61164B1B683B6109E03B691B68F4
:100D1000FA68D31AFB603B697B613B69DB693B6125
:100D20003B69002B04D03B691A68FB689A42EDD3FB
:100D30003B69002B05D03B691A68FB68D21A3B69F6
:100D40001A607B68FA681A607B683A69DA617B69C5
:100D50007A68DA6100BF1C37BD465DF8047B7047D6
:100D6000C800002080B487B000AF7860234B1B68B8
:100D70007B617B693B6108E03A697B689A4208D0F5
:100D80003B697B613B69DB693B613B69002BF3D1CC
:100D900000E000BF3B69002B29D07A693B699A4289
:100DA00011D1164B1B68DB69144A1360134B1B6887
:100DB000002B08D1124B01229A60124B00221A60BC
:100DC000114B01221A703B691B68FB603B69DA69B1
:100DD0007B69DA617B69DB693B613B69002B07D08A
:100DE0003B691A68FB681A443B691A6000E000BF5F
:100DF0001C37BD465DF8047B704700BFC80000206B
:100E000000100140CC000020E100002080B500AFC0
:100E10001120FFF751FD00BF80BD80B500AF142049
:100E2000FFF74AFD00BF80BD80B584B000AF786099
:100E30000F4B1B68002B11D00D4B1B687A68506953
:100E40007A68926911469847F860FB68BB60BB6896
:100E5000002B09D0B868FFF7C5FC05E07B685B692B
:100E60007A6892691046984700BF1037BD4680BD2A
:100E7000DC00002080B584B000AF2B4B1B68002B3A
:100E80004ED000237B60FFF7E7FE0246274B1B682E
:100E900019461046FFF7ECFEB860234B1B68FB6059
:100EA0001DE0FB681A68BB689A421CD8FB681B6887
:100EB000BA68D31ABB60FB681B687A6813447B600E
:100EC000FB683B60FB68DB69FB603B681B7C002BBD
:100ED00005D03B6800221A743868FFF7A5FFFB684D
:100EE000002BDED100E000BF114B1A78114B1B78AC
:100EF0009A420CD10F4B1B780133DAB20D4B1A70AA
:100F00000C4B1B78022B02D10A4B00221A70094BA2
:100F10001B781946084A7B6842F82130FFF77DFFAD
:100F200000BF1037BD4680BDC8000020CC000020A7
:100F3000D8000020D9000020D000002080B483B069
:100F400000AF7860194B1A78194B1B789A4223D05E
:100F5000164B1B780133DAB2144B1A70134B1B7803
:100F6000022B02D1114B00221A70104B1B781A462B
:100F7000104B53F822207B681A607B681A680E4B6E
:100F80001B6813440C4A13600B4B1B6823F07F4310
:100F9000094A1360012303E07B6800221A600023E2
:100FA00018460C37BD465DF8047B7047D80000201A
:100FB000D9000020D0000020CC00002080B586B0F1
:100FC00000AF2B4B1B683B612A4B1B78FB753EE047
:100FD000294B1A68FB7DDB001344FB60FB681B7820
:100FE000BB752FE0FB685968BA7D13465B0013445C
:100FF000DB000B44BB60BB7D0133BB75FB689B789A
:10100000BA7D9A4201D10023BB75BB681B78022BC5
:1010100002D0032B10D014E0BB685B681846FFF7C2
:10102000A1FE0FE0124B1B687B607B6800221A74E4
:101030007B68DB690E4A13600D4B1B68002BF1D1F6
:1010400000E000BFFB685B78BA7D9A42CAD1FB7DA5
:101050005A1EFA75002BBBD1054B1A683B699A42A0
:1010600014BF01230023DBB218461837BD4680BDEC
:10107000C8000020C0000020C400002080B489B057
:1010800000AFF860B9607A600023FB6138E0214B63
:101090001B68BB61BB691A68FB689A4206D9BB69C9
:1010A0001A68FB68D21ABB691A602DE0BB691B681D
:1010B000FA68D31AFB60BB691B68FA691344FB61C9
:1010C000BB6900221A60134B1B687B61BB69DB693B
:1010D000104A1360BB69DB68002B11D0BA68FB694A
:1010E000134423F07F42BB695A60BB69DA68BB696D
:1010F0009A607B681A68BB69DA617B687A691A60F2
:10110000044B1B68002BC2D100BF2437BD465DF8DD
:10111000047B7047C800002080B588B000AF7860BD
:10112000584B1B687B61584B1B78FB7797E0574BFC
:101130001A68FB7FDB0013443B6185E07B68002B72
:1011400005D07B68BB61BB69DB697B603CE03B69C8
:101150005A683B691B7819460B465B000B44DB0061
:101160001344FB603B691B780133DAB23B691A70A8
:101170003B691A783B699B789A4202D13B6900220D
:101180001A70FB685B68BB61FB681B78012B5BD145
:10119000BB691B7C002B00D056E0FB689A68BB69DA
:1011A0005A60FB68DA68BB699A60FB681A69BB69B8
:1011B000DA60FB685A69BB699A61354B1B78002B72
:1011C00002D0BB6900225A60BB695A68314B1B6868
:1011D000D31A23F07F43304A93420ED8BB695A6832
:1011E0002C4B1B6819461046FFF742FD0246BB69AF
:1011F0009B681A44BB691A6017E0264B1A68BB69E2
:101200005B6819461046FFF733FDB860BB699A6802
:10121000BB689A4206D9BB699A68BB68D21ABB6997
:101220001A6002E0BB6900221A60BB6900225A60A2
:10123000BB6900229A60BB6901221A74BB69002253
:10124000DA61B869FFF734FD7B68002B7FF476AF75
:101250003B691A783B695B789A427FF46FAFFB7FFA
:101260005A1EFA77002B7FF462AF064B1A687B692F
:101270009A4214BF01230023DBB218462037BD4633
:1012800080BD00BFC8000020C0000020C4000020B6
:10129000E1000020CC000020FEFF7F0090B589B067
:1012A00000AF7860464B1B68002B00F08280444BF7
:1012B0001B681B68FB61FFF7CFFCB861414B1B68E3
:1012C0007B617969B869FFF7D3FC034603333B615F
:1012D0003D4B1B7883F00103DBB2002B01D0FFF7FD
:1012E000B3FB3A69FB69934238BF13467A691344EA
:1012F0007B617B6923F07F437B617869FFF7C8FCE2
:10130000FFF7AAFCF860B969F868FFF7B1FC03467B
:10131000DC1CB9697869FFF7ABFC03469C424AD9EB
:10132000FFF79AFC03461846FFF7B2FC2F23BB6079
:10133000BB681846013800BF00BF00BF00BF00BF38
:1013400000BF00BF00BF00BF00BF00BF00BF00BFA5
:1013500000BF00BF00BF00BF00BF00BF00BF00BF95
:1013600000BF00BF00BF00BF00BF00BF00BF00BF85
:1013700000BF00BF00BF00BF00BF00BF00BF00BF75
:1013800000BF00BF00BF00BF00BF00BF00BF00BF65
:1013900000BF00BF00BF00BF00BF00BF00BF00BF55
:1013A00000BF00BF00BF00BF00BFC3D1FFF72EFDCD
:1013B00001E0FFF7ABFB00BF2437BD4690BD00BF87
:1013C000C8000020CC000020E000002080B586B0DE
:1013D00000AF00237B60184B1B683B61174B1B68F9
:1013E000FB603B461846FFF7A9FD0346FB72FFF77B
:1013F000E5FD0346FB75FB7A002B07D03B683A1DE1
:1014000039691846FFF73AFE0123FB757B681846D9
:10141000FFF782FE0346002B01D00123FB75FB7D05
:10142000002B02D0F868FFF739FF054B00221A7035
:1014300000BF1837BD4680BDCC000020C80000208A
:10144000E100002080B483B000AF78600B46FB70F1
:101450007B68FA785A7000BF0C37BD465DF8047B94
:10146000704780B485B000AF786039607B685B7886
:101470000133FB737B689B78FA7B9A4201D100238E
:10148000FB737B681B78FA7B9A4201D100230EE044
:101490003B68FA7B1A707B685A687B685B781946F0
:1014A0000B465B000B44DB001344BB60BB68184673
:1014B0001437BD465DF8047B7047000080B586B0E8
:1014C00000AFF860B9607A603B601B4B1A68FB683C
:1014D000DB00134407F1130211461846FFF7C1FF62
:1014E00078617B69002B01D1042320E07B69012214
:1014F0001A707B69BA685A60FFF7AEFB02467B69D7
:101500009A607B697A68DA607B693A681A617B69FC
:101510003A6A5A61084B1A68FB68DB001344FA7C8C
:1015200011461846FFF78EFFFFF777FC0023184699
:101530001837BD4680BD00BFC400002080B584B010
:1015400000AF78603960144B1A687B68DB00134485
:1015500007F10B0211461846FFF783FFF860FB689E
:10156000002B01D1042312E0FB6802221A70FB68F1
:101570003A685A60084B1A687B68DB001344FA7AB1
:1015800011461846FFF75EFFFFF747FC0023184699
:101590001037BD4680BD00BFC400002080B500AF3D
:1015A0000D4B0022C3F840210B4B0022C3F844210D
:1015B000094B0022C3F84821074B0022C3F84C21F5
:1015C000054B0022C3F80021034B0022C3F804217D
:1015D000FFF750FC00BF80BD0010014080B500AF98
:1015E000FFF7F4FE00BF80BD80B586B000AFF860A5
:1015F0007A603B600B46FB727868FFF7E3F90346BD
:1016000083F00103DBB2002B01D0072355E07B6898
:10161000002B04D12B4B00221A6007234DE0FFF76B
:1016200075FA294A3B681360284B03221A70254A31
:101630007B6813607B6818337B6000237B611DE04F
:10164000204B1A687B69DB0013443B613B69002235
:101650001A703B6900225A703B69FA7A9A703B69AA
:101660007A685A60FA7A13465B001344DB001A4624
:101670007B6813447B607B6901337B617B69022B50
:10168000DEDD134B00221A60124B00221A70124B3F
:1016900000221A701420FFF729F906211420FFF701
:1016A0003FF91420FFF7D4F8F868FFF7BBF9FFF70C
:1016B000D3FA0246094B1A60002318461837BD4674
:1016C00080BD00BFC4000020DC000020C00000205E
:1016D000C8000020D8000020D9000020CC00002045
:1016E00080B487B000AFF8600B467A60FB72154B90
:1016F0001B68002B01D108231DE07B68002B01D162
:10170000072318E0FB68002B01D1072313E0FB68D7
:101710001B681B7C002B01D008230CE0FB681B68B6
:101720007B617B6900221A747B69FA7A5A747B693F
:101730007A685A61002318461C37BD465DF8047B61
:10174000704700BFC400002080B582B000AFFFF733
:101750004BF90346022B02D0062B03D005E00023F1
:101760007B6005E001237B6002E002237B6000BF19
:101770007B6818460837BD4680BD000080B588B03C
:1017800002AFF860B9607A60FB687B61154B1B683B
:10179000002B01D1082321E0FB68002B01D1082395
:1017A0001CE0BB68042B01D8072317E07B695B6949
:1017B000002B01D1082311E07B695B7C012B01D157
:1017C000BB6800E000233B61FFF7BEFF7B6800932E
:1017D0003B69BA687969FFF771FE03461846183706
:1017E000BD4680BDC400002080B584B000AF7860E5
:1017F0007B68FB600E4B1B68002B01D1082313E0B4
:101800007B68002B03D0FB685B69002B01D10823A8
:101810000AE0FB6800221A74FFF796FF0346F96896
:101820001846FFF78BFE034618461037BD4680BDAD
:10183000C400002080B400AF72B6054B1B680133B2
:10184000034A136000BFBD465DF8047B704700BFCC
:10185000E400002080B400AF074B1B68013B064A40
:101860001360054B1B68002B00D162B600BFBD465C
:101870005DF8047B704700BFE400002080B582B0B3
:1018800000AF7860FFF7D6FF00BF0837BD4680BDC8
:1018900080B582B000AF0346FB71FFF7DBFF00BFEE
:1018A0000837BD4680BD80B485B000AF786043E0A6
:1018B0007B68013B7B6040F2E733FB60FB681846C6
:1018C000013800BF00BF00BF00BF00BF00BF00BFA6
:1018D00000BF00BF00BF00BF00BF00BF00BF00BF10
:1018E00000BF00BF00BF00BF00BF00BF00BF00BF00
:1018F00000BF00BF00BF00BF00BF00BF00BF00BFF0
:1019000000BF00BF00BF00BF00BF00BF00BF00BFDF
:1019100000BF00BF00BF00BF00BF00BF00BF00BFCF
:1019200000BF00BF00BF00BF00BF00BF00BF00BFBF
:1019300000BF00BF00BFC3D17B68002BB8D100BF80
:101940001437BD465DF8047B704780B483B000AFA8
:1019500078604FF080427B68C2F8043300BF0C37D8
:10196000BD465DF8047B704780B483B000AF7860FB
:101970004FF080427B68C2F8083300BF0C37BD4689
:101980005DF8047B704780B483B000AF0346FB7101
:10199000FB7903F1804301221A6000BF0C37BD467A
:1019A0005DF8047B704780B485B000AF0346FB80D0
:1019B000FB8803F1804300221A60FB8803F1804317
:1019C0001B68FB60FB6800BF1437BD465DF8047BF5
:1019D000704780B483B000AF0346FB80FB8803F1FF
:1019E00080431B68002B14BF01230023DBB2184681
:1019F0000C37BD465DF8047B704780B483B000AF00
:101A00000346FB714FF08042FB7903F00303C2F8F9
:101A1000183500BF0C37BD465DF8047B704780B4B5
:101A200083B000AF0346FB7100BF0C37BD465DF8C5
:101A3000047B704780B500AF4FF48270FFF7B3FFAF
:101A40000220FFF782FF0820FFF79DFF00BF80BD47
:101A500080B582B000AF00237B60124B1B7A002B55
:101A600001D0852319E00F4B00225A600D4B002254
:101A70001A600C4B00221A610A4B0022DA60002027
:101A8000FFF7CDFF0120FFF7B8FF0621002000F08F
:101A900019F9044B01221A727B6818460837BD46B3
:101AA00080BD00BFE800002080B483B000AF786044
:101AB00039607B681B68002B07D07B681A683B681D
:101AC0001A607B683A681A6005E03B6800221A6079
:101AD0007B683A681A6000BF0C37BD465DF8047B2E
:101AE000704780B485B000AF78607B681B68FB608E
:101AF000FB68002B03D0FB681A687B681A60FB68E0
:101B000018461437BD465DF8047B704780B582B037
:101B100000AF78600020FFF7B1FE134B9B7ADBB279
:101B2000002B07D07B68002B11D07B685B680120FD
:101B300098470CE07B68002B03D079680B48FFF7CF
:101B4000B3FF094BDB68002B01D1FFF773FF064B96
:101B5000DB680133044AD3600020FFF799FE00BF21
:101B60000837BD4680BD00BFE8000020F800002017
:101B700080B584B000AF78600B46FB707868FFF7E3
:101B8000B0FFF860FB68002B05D0FB685B68FA7853
:101B900010469847F2E700BF00BF1037BD4680BD32
:101BA00080B500AF4FF48070FFF713FF0346002BA2
:101BB0000DD04FF48070FFF7F6FE0120FFF7D4FE42
:101BC0000E4B01225A7200210D48FFF7D1FF4FF44E
:101BD0008270FFF7FEFE0346002B0DD04FF482709B
:101BE000FFF7E1FE0220FFF7BFFE044B01229A72CD
:101BF00001210448FFF7BCFF00BF80BDE8000020C2
:101C0000EC000020F800002080B483B000AF034651
:101C1000FB71094997F907305B09FA7902F01F0255
:101C2000012000FA02F241F8232000BF0C37BD4624
:101C30005DF8047B704700BF00E100E080B483B032
:101C400000AF0346FB71094997F907305B09FA7940
:101C500002F01F02012000FA02F2603341F8232053
:101C600000BF0C37BD465DF8047B704700E100E023
:101C700080B483B000AF03463960FB7197F9073039
:101C8000002B0BDA0D49FB7903F00F03043B3A6894
:101C9000D2B25201D2B20B441A7609E0084997F940
:101CA00007303A68D2B25201D2B20B4483F8002313
:101CB00000BF0C37BD465DF8047B704700ED00E0C7
:101CC00000E100E080B582B000AF03460A46FB7138
:101CD0001346BB71BA7997F9073011461846FFF7DA
:101CE000C7FF97F907301846FFF7A8FF97F90730A5
:101CF0001846FFF789FF00BF0837BD4680BD80B595
:101D000082B000AF0346FB80FB88184600F024F841
:101D100003461B68012B0CBF01230023DBB21846CE
:101D20000837BD4680BD80B584B000AF0346FB8058
:101D3000FB88184600F010F803461A46002313608B
:101D4000FB88184600F008F803461B68FB60FB6838
:101D500000BF1037BD4680BD80B483B000AF0346DE
:101D6000FB80FB8803F1804303F5C04318460C3722
:101D7000BD465DF8047B704780B483B000AF7860E7
:101D8000044A7B68C2F8043300BF0C37BD465DF8D7
:101D9000047B70470060004080B483B000AF78607F
:101DA000054BD3F804237B68134018460C37BD4617
:101DB0005DF8047B704700BF0060004080B483B0D2
:101DC00000AF78600949094A7B6803F5A27352F8AD
:101DD000233043F001027B6803F5A27341F823200E
:101DE00000BF0C37BD465DF8047B704700600040C3
:101DF00080B485B000AFF860B9601346FB71164936
:101E0000154AFB6803F5A27352F8233023F44733D5
:101E100023F44073FA6802F5A27241F822300E48AA
:101E20000D4AFB6803F5A27352F82320BB681B021E
:101E300003F4F851FB791B0403F440330B431A43BA
:101E4000FB6803F5A27340F8232000BF1437BD469A
:101E50005DF8047B704700BF0060004080B483B031
:101E600000AF7860074A7B6803F5A27352F823300D
:101E70001B0A03F01F0318460C37BD465DF8047BB0
:101E8000704700BF0060004080B483B000AF78604E
:101E9000074A7B6803F5A27352F823301B0C03F04A
:101EA0000303DBB218460C37BD465DF8047B704770
:101EB0000060004080B483B000AF786008461146EF
:101EC0001A460346FB700B46BB7013467B704FF0FF
:101ED000A041FA78BB785B001A437B789B001A43D9
:101EE0003B7C1B021A433B7D1B041A437B6803F5B2
:101EF000E07341F8232000BF0C37BD465DF8047B3A
:101F0000704780B584B002AF78600B46FB70FA78FA
:101F100000230193002300931346002200217868D8
:101F2000FFF7C8FF00BF0837BD4680BD80B485B04D
:101F300000AF78604FF0A0427B6803F5E07352F881
:101F4000233023F00203FB604FF0A0417B6803F5D0
:101F5000E073FA6841F8232000BF1437BD465DF8EE
:101F6000047B704780B483B000AF78600B46FB7091
:101F70004FF0A0414FF0A0427B6803F5E07352F8A8
:101F8000233023F440327B6803F5E07341F82320CB
:101F90004FF0A0414FF0A0427B6803F5E07352F888
:101FA0002330FA7812041A437B6803F5E07341F892
:101FB000232000BF0C37BD465DF8047B704780B41A
:101FC00083B000AF78604FF0A043D3F810257B6852
:101FD00022FA03F303F0010318460C37BD465DF8FF
:101FE000047B704780B400AF4FF0A043D3F81035A6
:101FF0001846BD465DF8047B704780B483B000AFDF
:1020000078604FF0A0427B6803F5E07352F823300C
:102010001B0C03F00303DBB218460C37BD465DF81A
:10202000047B704780B483B000AF78600D4A7B6852
:102030001344303393F90030002B09DB094A7B68E5
:102040001344303393F90030072B01DC012300E007
:10205000002303F00103DBB218460C37BD465DF8E0
:10206000047B7047FC00002080B483B000AF786030
:10207000084A7B681344303393F90030072BCCBFF8
:1020800001230023DBB218460C37BD465DF8047B04
:10209000704700BFFC00002080B483B000AF7860C0
:1020A000074A7B681344303393F90030DB43DBB2DB
:1020B000DB09DBB218460C37BD465DF8047B704780
:1020C000FC00002080B485B000AFF860B9607A6091
:1020D000FB70BB6859B2104AFB68134430330A46A0
:1020E0001A700D49BB687A6841F82320FB7883F0A9
:1020F0000103DBB2002B08D0BB68083BFA6851B281
:10210000054A13440A4683F8502000BF1437BD46E1
:102110005DF8047B704700BFFC00002080B483B0F2
:1021200000AF7860054A7B6813443033FF221A7091
:1021300000BF0C37BD465DF8047B7047FC000020F3
:1021400080B483B000AF7860054A7B6813443033B5
:1021500093F9003018460C37BD465DF8047B704794
:10216000FC00002080B483B000AF7860044A7B6834
:1021700052F8233018460C37BD465DF8047B704793
:10218000FC00002080B588B000AFF860B96013464D
:10219000FB71FF23FB77FB79002B01D0002300E0CC
:1021A00008237B61FB79002B01D0082300E00C237E
:1021B0003B617B69BB6112E00E4ABB6952F8233078
:1021C000B3F1FF3F08D1FB79BA68B969F868FFF746
:1021D00079FFBB69FB7706E0BB690133BB61BA6974
:1021E0003B699A42E8D397F91F3018462037BD461D
:1021F00080BD00BFFC00002080B483B000AF034668
:10220000FB71FB790A4A4FF0FF3142F82310FB794A
:10221000072B06D9FB79083B054A1344FF2283F8B4
:10222000502000BF0C37BD465DF8047B704700BFEF
:10223000FC00002080B582B000AF194B93F85430F9
:10224000002B01D0082326E00023FB7106E0FB7978
:102250001846FFF763FFFB790133FB71FB791F2BF6
:10226000F5D90023FB7106E0FB791846FFF7C4FFA0
:10227000FB790133FB71FB790B2BF5D90621062085
:10228000FFF720FD4FF00040FFF776FD044B0122E1
:1022900083F85420002318460837BD4680BD00BF90
:1022A000FC00002080B400AF064B93F85430002BA4
:1022B00014BF01230023DBB21846BD465DF8047B42
:1022C000704700BFFC00002080B586B000AFF8600A
:1022D000B9607A6000237B61F868FFF7DDFE034692
:1022E000002B02D008237B6140E0BB68DB781A46F4
:1022F0007968F868FFF746FF0346FB7497F91330D7
:10230000B3F1FF3F30D0BB689B78002B03D0F86857
:10231000FFF70CFE05E0BB685B781946F868FFF72D
:10232000F0FDBB68DB78002B08D097F91300BB6881
:102330001B781A46F968FFF75BFD17E097F9133031
:10234000083B97F91320083A0B490A4492F95010B8
:10235000BA681278920152B20A4351B2064A134443
:102360000A4683F8502001E004237B617B6918460C
:102370001837BD4680BD00BFFC00002080B586B088
:1023800000AF78600B46FB707868FFF76DFE034680
:10239000002B2BD07868FFF7D3FE0346083B2C4A6E
:1023A000134493F95030BB75BB7D9B097B757B7DD6
:1023B000032B0ED1FFF716FE014601227B6802FABD
:1023C00003F30B40002B01D0032300E00223FB7535
:1023D00006E07B7D012B01D1022300E00323FB7586
:1023E000FB7D19467868FFF7BDFD2DE07868FFF7A3
:1023F00019FE0346002B27D07868FFF7A1FE03469D
:102400003B613B699BB240339BB29B00FB813B69C4
:102410001846FFF7D3FCFB891846FFF784FCFB78CE
:10242000002B11D07868FFF78BFE03461846FFF7A4
:1024300099FEB860BB68002B06D001223B6902FA06
:1024400003F31846FFF798FC00BF1837BD4680BD60
:10245000FC00002080B582B000AF78607868FFF79C
:10246000AEFD0346002B14BF01230023DBB2184648
:102470000837BD4680BD000080B592B000AF002394
:102480007B6400233B644FF480737B8701237B6371
:102490000023FB631DE07B8F1846FFF730FC0346EB
:1024A000002B0DD0786BFFF777FC0346002B07D08D
:1024B0007B8F1846FFF737FC7A6C7B6B13437B648A
:1024C0007B6B5B007B637B8F04337B87FB6B013310
:1024D000FB63FB6B072BDED94FF4BE70FFF70FFCDD
:1024E0000346002B0AD04FF4BE70FFF71CFC7B6C38
:1024F00043F000437B64FFF775FD38647B6CDBB20F
:10250000002B26D001237B630023FB631EE07A6B44
:102510007B6C1340002B13D0F86BFFF79FFC7862A5
:10252000F86BFFF7B1FC034687F82330F86BFFF731
:1025300019FEF86197F82320FB691146786A9847DD
:102540007B6B5B007B63FB6B0133FB63FB6B072BDC
:10255000DDD97B6C002B80F29680002387F8333026
:102560000023FB624FF0FF33BB62002387F8333058
:102570000023FB636CE0464AFB6B1344503393F932
:102580000030FB76FB7E23F0C0037B61404AFB6B8F
:102590001344503393F90030B3F1FF3F55D0BA6A7A
:1025A0007B6922FA03F303F00103002B4DD0FB7E7D
:1025B0009B09FB747869FFF7C3FD03461846FFF7D4
:1025C000D1FDF860FB68002B02D1FB7C032B3CD1D2
:1025D00001227B6902FA03F37B63FB7C032B03D1AB
:1025E000FA6A7B6B1343FB627869FFF706FD0346CB
:1025F000FB727A6B3B6C1340002B02D0FB7A022BF0
:1026000007D07A6B3B6C1340002B1ED1FB7A032B57
:102610001BD1FB7C032B10D1FB7A022B01D10323AE
:1026200000E00223BB72BB7A19467869FFF79AFC77
:1026300097F83330013387F83330FB68002B04D030
:10264000FA7CFB68114678699847FB6B0133FB63A2
:10265000FB6B032B8FD997F83330002B0ED0FFF78D
:10266000C1FC78607A683B6C9A4203D1002387F8FA
:10267000333003E07B683B64FB6ABB6297F833301E
:10268000002B7FF472AF00BF4837BD4680BD00BF4E
:10269000FC00002080B483B000AF0346FB71054A04
:1026A000FB79C2F80C3500BF0C37BD465DF8047BE2
:1026B000704700BF0000014080B483B000AF034604
:1026C000FB71FB7903F1804303F5803301221A602B
:1026D00000BF0C37BD465DF8047B704780B483B003
:1026E00000AF0346FB80FB8803F1804303F5803392
:1026F00000221A6000BF0C37BD465DF8047B7047AE
:1027000080B483B000AF7860044A7B68C2F80433B9
:1027100000BF0C37BD465DF8047B704700000140E8
:1027200080B483B000AF7860074BD3F804237B6894
:102730001340002B14BF01230023DBB218460C37D3
:10274000BD465DF8047B70470000014080B483B053
:1027500000AF7860044A7B68C2F8043500BF0C37CC
:10276000BD465DF8047B70470000014080B483B033
:1027700000AF0346FB710849074BD3F80825FB79E6
:10278000012000FA03F31343C1F8083500BF0C37EA
:10279000BD465DF8047B70470000014080B483B003
:1027A00000AF0346FB71064AFB7903F5C073054988
:1027B00042F8231000BF0C37BD465DF8047B70471C
:1027C000000001403546526E80B500AF0120FFF792
:1027D000A7FF0346002B06D04FF48070FFF77EFF63
:1027E000024B1B68984700BF80BD00BF540100200A
:1027F00080B582B000AF78603960164A3B681360DC
:10280000154B1B78002B06D1134B01221A707B68E5
:10281000002B04D101E0082317E0104B7B607B689C
:102820001B781846FFF736FF7B685B68DB030C4AB2
:10283000A2FB03239B091846FFF788FF7B681B7ADE
:1028400019461020FFF73EFA002318460837BD4608
:1028500080BD00BF5401002058010020143A000040
:10286000D34D621080B500AF0120FFF749FF002073
:10287000FFF722FF024B02221A7000BF80BD00BF8B
:102880005801002080B584B000AF78600020FEF7CA
:10289000F5FF104B1B68072B11D80E4B1B68DAB2E3
:1028A0007B681A700B4B1B6801330A4A13607B6804
:1028B0001B781846FFF75AFF0023FB6001E0042352
:1028C000FB600020FEF7E4FFFB6818461037BD46AA
:1028D00080BD00BF5C01002080B582B000AF034620
:1028E000FB71FB791846FFF759FF00BF0837BD465B
:1028F00080BD000080B586B000AF03460A46FB717C
:102900001346BB710023FB7500233B6102E03B696A
:1029100001333B613B69032B06D83D4A3B6952F8C2
:102920002320FB799A42F2D13B69032B60D8BB7913
:10293000012B04D0022B50D0002B32D058E0354967
:102940003A6913465B0013440B441B78FB7531490D
:102950003A6913465B0013440B4401331B78002B88
:1029600011D02D482D4B1A6813469B0013445B0071
:102970002B4A1946FEF702FFF860FB68002B02D1D4
:10298000274AFB79137023493A6913465B001344C5
:102990000B4402331978234A3B6913440A461A70E0
:1029A00026E01D4B1846FEF71FFF1E4A3B691344E5
:1029B000197818483A6913465B00134403440233FC
:1029C0001B78994213D113493A6913465B001344AB
:1029D0000B4402331B78FB7509E00E493A69134634
:1029E0005B0013440B4401331B78FB7500E000BF10
:1029F000FB7D002B08D00C4B1B68002B04D00A4B2E
:102A00001B68FA7D1046984700BF1837BD4680BD49
:102A10002C3A0000B4010020C00100206401002015
:102A2000E0010020E4010020B001002080B582B068
:102A300000AF78607B681B7802211846FFF75AFFC9
:102A400000BF0837BD4680BD80B588B000AF0346E3
:102A5000FB710023FB610023BB61FB79172B00F2A4
:102A6000248301A252F823F0C92A0000ED2A0000B5
:102A7000ED2A0000932B0000392C0000C92C000027
:102A80006D2D0000F92D0000332E00006D2E00008A
:102A9000AD2E0000E72E0000272F0000452F00007C
:102AA000452F0000452F0000452F0000452F000056
:102AB000D32F0000F12F0000253000005930000016
:102AC0008D3000008D3000004FF0A042C54B1B68D8
:102AD000DB4303F4F013C2F808354FF0A0430022A3
:102AE000C3F80C25C04AFB791370DFE24FF0A04217
:102AF000BC4B1B68DB4303F4E013C2F808354FF00E
:102B0000A0430022C3F80C254FF0A043D3F80435AE
:102B100083F4F01303F40033002B14D04FF0A043E0
:102B20004FF40032C3F808254FF0A0430022C3F849
:102B30000C25FB79022B02D14FF4E16301E04FF445
:102B40007A63BB6112E04FF0A0434FF40032C3F848
:102B50000C254FF0A0430022C3F80825FB79022B77
:102B600001D1C82301E04FF4C873BB619E4AFB79D1
:102B700013709E48BB699E4AA2FB03235B099D4AD2
:102B8000126802FB03F300221946FEF7F7FDF86115
:102B90008CE24FF0A042934B1B68DB4303F4E0133D
:102BA000C2F808354FF0A0430022C3F80C254FF0BF
:102BB000A043D3F8043583F4F01303F40033002B5F
:102BC00014D04FF0A0434FF40032C3F808254FF063
:102BD000A0430022C3F80C25FB79032B02D14FF44C
:102BE000487301E04FF47A63BB6112E04FF0A043F9
:102BF0004FF40032C3F80C254FF0A0430022C3F875
:102C00000825FB79032B01D1C82301E04FF4C873D9
:102C1000BB61754AFB7913707448BB69744AA2FBA7
:102C200003235B09734A126802FB03F3002219466F
:102C3000FEF7A4FDF86139E24FF0A042694B1B6832
:102C4000DB4303F4E013C2F808354FF0A043002241
:102C5000C3F80C254FF0A043D3F8043583F4F013E8
:102C600003F40033002B0ED04FF0A0434FF400329A
:102C7000C3F808254FF0A0430022C3F80C254FF4F9
:102C80007A63BB610DE04FF0A0434FF40032C3F80C
:102C90000C254FF0A0430022C3F808254FF4C87359
:102CA000BB61514AFB7913705048BB69504AA2FB83
:102CB00003235B094F4A126802FB03F30022194603
:102CC000FEF75CFDF861F1E14FF0A042454B1B6857
:102CD000DB4303F4E013C2F808354FF0A0430022B1
:102CE000C3F80C254FF0A043D3F8043583F4F01358
:102CF00003F40033002B13D04FF0A0434FF4003205
:102D0000C3F808254FF0A0430022C3F80C25FB7937
:102D1000052B01D1C82301E04FF47A63BB6112E0B7
:102D20004FF0A0434FF40032C3F80C254FF0A043FE
:102D30000022C3F80825FB79052B01D1C82301E047
:102D40004FF4C873BB61284AFB7913702748BB69ED
:102D5000274AA2FB03235B09264A126802FB03F3FE
:102D600000221946FEF70AFDF8619FE14FF0A042EC
:102D70001C4B1B68DB4303F4E013C2F808354FF02B
:102D8000A0430022C3F80C254FF0A043D3F804352C
:102D900083F4F01303F40033002B0BD04FF0A04367
:102DA0004FF40032C3F808254FF0A0430022C3F8C7
:102DB0000C250AE04FF0A0434FF40032C3F80C2575
:102DC0004FF0A0430022C3F80825074AFB7913708F
:102DD0000648084B1B6800221946FEF7CFFCF86135
:102DE00064E100BF6C010020600100207001002040
:102DF0001F85EB51640100204FF0A042AE4B1B68D1
:102E0000DB4303F4E013C2F808354FF0A04300227F
:102E1000C3F80C254FF0A0434FF40032C3F80C2543
:102E20004FF0A0430022C3F80825A44AFB79137091
:102E30003CE14FF0A043D3F804357B614FF0A04252
:102E40007B69DB4303F48023C2F808354FF0A042CE
:102E50007B6903F48023C2F80C359948994B1B68B1
:102E600000221946FEF78AFCF8611FE14FF0A043EB
:102E7000D3F804353B614FF0A0423B69DB4303F4D8
:102E80008023C2F808354FF0A0423B6903F4802349
:102E9000C2F80C358A488B4B1A6813469B001344C2
:102EA00000221946FEF76AFCF861FFE04FF0A043EC
:102EB000D3F80435FB604FF0A042FB68DB4303F41A
:102EC0008023C2F808354FF0A042FB6803F480234A
:102ED000C2F80C357A487B4B1B6800221946FEF776
:102EE0004DFCF861E2E04FF0A043D3F80435BB603D
:102EF0004FF0A042BB68DB4303F48023C2F80835DF
:102F00004FF0A042BB6803F48023C2F80C356C4834
:102F10006C4B1A6813469B00134400221946FEF7B7
:102F20002DFCF861C2E04FF0A0434FF4F012C3F85B
:102F30000C254FF0A0430022C3F808255F4AFB7917
:102F40001370B3E0604B1846FEF74EFCF861FB7956
:102F5000C3F11103BB61BB69002B29D0FB69002BB6
:102F600026D1554B4FF400221A60BB69012B11D9B1
:102F70005548BB69C82202FB03F3544AA2FB032352
:102F80005B09504A126802FB03F300221946FEF760
:102F9000F5FBF8614FF0A042474B1B6803F4F013B8
:102FA000C2F80C354FF0A0430022C3F808257DE09D
:102FB0004FF0A042404B1B6803F4F013C2F80835F1
:102FC0004FF0A0430022C3F80C253B4B00221A60AF
:102FD0006CE04FF0A0434FF4F012C3F808254FF017
:102FE000A0430022C3F80C25344AFB7913705DE03E
:102FF0004FF0A0434FF4E012C3F808254FF0A04370
:103000000022C3F80C254FF0A0434FF40032C3F860
:103010000C254FF0A0430022C3F80825274AFB796E
:10302000137043E04FF0A0434FF4D012C3F80825CB
:103030004FF0A0430022C3F80C254FF0A0434FF4FB
:103040008022C3F80C254FF0A0430022C3F80825C6
:103050001A4AFB79137029E04FF0A0434FF4C012D5
:10306000C3F808254FF0A0430022C3F80C254FF009
:10307000A0434FF4C022C3F80C254FF0A043002218
:10308000C3F808250D4AFB7913700FE04FF0A043F9
:103090004FF4F012C3F80C254FF0A0430022C3F800
:1030A0000825064AFB79137000E000BFFB6918464B
:1030B0002037BD4680BD00BF6C01002060010020AC
:1030C0007001002064010020900100201F85EB5159
:1030D00080B582B000AF7860074B1B6803F0010336
:1030E000002B04D0054B1B781846FFF7ADFC00BF42
:1030F0000837BD4680BD00BF680100206001002088
:1031000080B485B000AF78604FF0A043D3F80435A9
:10311000FB604FF0A042FB68DB4303F40023C2F8DE
:1031200008354FF0A042FB6803F40023C2F80C35C9
:1031300000BF1437BD465DF8047B704780B586B08C
:1031400000AFF860B9607A6000237B61334ABB68E6
:103150001360334AFB681360324A7B681360FB6874
:1031600003F00203002B2BD000233B6108E0012277
:103170000121386900F066F878613B6901333B61F1
:103180003B69032B02D87B69002BF0D07B69002BB5
:1031900007D1BB685B081A4604212348FDF796FA5D
:1031A00078617B69002B02D1FDF7FAFA78617B69BF
:1031B000002B05D11D4A00211D48FEF791FA7861C8
:1031C000FB6803F00103002B10D04FF0A0434FF435
:1031D000F012C3F808254FF0A0430022C3F80C25D5
:1031E0004FF0A0434FF4F012C3F818257B69002B71
:1031F00005D1104A00211048FEF772FA78617B6908
:10320000002B05D10D4A01210D48FEF769FA7861BE
:103210007B6918461837BD4680BD00BF6401002099
:1032200068010020B00100203C3A00002D2A000077
:10323000283A0000D1300000203A0000013100009F
:10324000243A000080B485B000AF78600B46FB7074
:103250001346BB700023FB607B68032B35D8BB781B
:10326000012B09D1FB78012B04D17B68DBB20D3334
:10327000DBB200E00023BB70FB78012B04D0022BF3
:103280000BD0002B13D01CE014497A6813465B0066
:1032900013440B44BA781A7019E010497A6813463F
:1032A0005B0013440B440133BA781A700FE00B49EA
:1032B0007A6813465B0013440B440233BA781A70E1
:1032C00005E00723FB6000BF01E00723FB60FB680C
:1032D00018461437BD465DF8047B7047B4010020E2
:1032E00080B500AFFDF75CFA0346184680BD80B498
:1032F00083B000AF7860084611461A460346FB705B
:103300000B46BB7013467B704FF0A041FA78BB7838
:103310005B001A437B789B001A433B7C1B021A43D9
:103320003B7D1B041A437B6803F5E07341F82320BF
:1033300000BF0C37BD465DF8047B704780B584B094
:1033400002AF786000230193002300930023012241
:1033500001217868FFF7CBFF00BF0837BD4680BD6D
:1033600080B400AF4FF0A0434FF4F012C3F808252B
:103370004FF0A0430022C3F80C2500BFBD465DF806
:10338000047B704780B582B000AF0346FB71FB79C8
:103390000D2B00D005E0054B1B781846FFF79CFA73
:1033A00000BF00BF0837BD4680BD00BF200300201E
:1033B00080B58EB000AF0023FB62FEF749FBF862D8
:1033C000FB6ABB62BB6A002B02D0B86AFDF70AFA3F
:1033D0000020FEF79BFB0023444A03210020FEF758
:1033E00003F978627B6A3B623B6A002B02D0386A41
:1033F000FDF7F8F93E4A40F6CD410220FFF79EFE68
:10340000F862FB6AFB61FB69002B02D0F869FDF7EB
:10341000E9F900237B630EE04FF4F0127B6B42FA74
:1034200003F303F00103002B02D0786BFFF786FF54
:103430007B6B01337B637B6B1F2BEDD94FF0A0437C
:103440004FF4F012C3F808254FF0A0430022C3F850
:103450000C2500233B6315E0C820FEF724FA4FF04B
:10346000A0424FF400313B6B01FA03F303F4F01375
:10347000C2F80C354FF0A0430022C3F808253B6B7F
:1034800001333B633B6B032BE6D9FFF729FFF8625F
:10349000FB6ABB61BB69002B02D0B869FDF7A2F9DA
:1034A000144A3B1D07CA83E807003B1D1249184612
:1034B000FFF79EF9F862FB6A7B617B69002B02D003
:1034C0007869FDF78FF90D48FFF7DCF9F862FB6AC0
:1034D0003B613B69002B02D03869FDF783F9FFF7A8
:1034E000C1F940BF20BF20BFFBE700BFE8010020BB
:1034F000853300005C3A00006133000020030020A7
:1035000080B400AFBFF34F8F0549054BDB6803F470
:10351000E062044B1343CB60BFF34F8F00BFFDE766
:1035200000ED00E00400FA0580B400AF034B044A4C
:103530001A6000BFBD465DF8047B70476000002044
:103540000090D00380B500AF00F028F90346002BAF
:1035500002D0854B854A1A6000F042F90346002BE1
:1035600006D0834A834B1B685B0B03F00703136091
:1035700000F068F90346002B05D07F4A7E4BDB68DC
:1035800023F08073D36000F07FF90346002B0ED048
:103590004FF080430022C3F80C214FF080430022FB
:1035A000C3F810214FF080430022C3F8382500F003
:1035B0009DF90346002B02D0704B03221A6000F0E5
:1035C000B7F90346002B0BD06D4B05221A606D4BEB
:1035D00001221A606C4B00221A606C4B3F221A6069
:1035E00000F0C8F90346002B76D0694A4FF08053AB
:1035F000D3F80434C2F82035654A4FF08053D3F82D
:103600000834C2F82435624A4FF08053D3F80C34A2
:10361000C2F828355E4A4FF08053D3F81034C2F810
:103620002C355B4A4FF08053D3F81434C2F8303550
:10363000574A4FF08053D3F81834C2F83435544AFF
:103640004FF08053D3F81C34C2F84035504A4FF045
:103650008053D3F82034C2F844354D4A4FF080539C
:10366000D3F82434C2F84835494A4FF08053D3F890
:103670002834C2F84C35464A4FF08053D3F82C34E6
:10368000C2F85035424A4FF08053D3F83034C2F874
:1036900054353F4A4FF08053D3F83434C2F8603584
:1036A0003B4A4FF08053D3F83834C2F86435384A77
:1036B0004FF08053D3F83C34C2F86835344A4FF0A9
:1036C0008053D3F84034C2F86C35314A4FF0805300
:1036D000D3F84434C2F870352E4A2E4BD3F88830D4
:1036E00043F47003C2F88830BFF34F8FBFF36F8F7E
:1036F0004FF01023D3F80032002B05DB4FF01023DE
:10370000D3F80432002B2BDA234B0122C3F8042513
:1037100000BF214BD3F80034002BFAD04FF0102318
:103720001522C3F8002200BF1B4BD3F80034002B36
:10373000FAD04FF010231522C3F8042200BF164B15
:10374000D3F80034002BFAD0134B0022C3F8042521
:1037500000BF114BD3F80034002BFAD0FFF7D0FE96
:10376000FFF7E2FE00BF80BD74C007400DF0ADBAA8
:103770003C05004044020010F0ED00E0A0050040D0
:10378000105600408856004018560040145600401D
:1037900000C0004000ED00E000E0014080B400AF58
:1037A0000C4B1B68DBB2062B0DD10B4B1B6803F0D7
:1037B0000F03002B07D1094B1B6803F0F003302BDC
:1037C00001D1012300E000231846BD465DF8047BCB
:1037D000704700BFE00F00F0E40F00F0E80F00F0CA
:1037E00080B400AF144B1B68DBB2062B1DD1134B0A
:1037F0001B6803F00F03002B17D1114B1B6803F05C
:10380000F003302B01D1012310E00D4B1B6803F0B6
:10381000F003402B01D1012308E0094B1B6803F0A2
:10382000F003502B01D1012300E000231846BD46D0
:103830005DF8047B704700BFE00F00F0E40F00F07C
:10384000E80F00F080B400AF0C4B1B68DBB2062B16
:103850000DD10B4B1B6803F00F03002B07D1094B55
:103860001B6803F0F003302B01D1012300E000239B
:103870001846BD465DF8047B704700BFE00F00F0BE
:10388000E40F00F0E80F00F080B400AF144B1B68A9
:10389000DBB2062B1DD1134B1B6803F00F03002B6B
:1038A00017D1114B1B6803F0F003302B01D101231A
:1038B00010E00D4B1B6803F0F003402B01D10123F6
:1038C00008E0094B1B6803F0F003502B01D10123E2
:1038D00000E000231846BD465DF8047B704700BF3A
:1038E000E00F00F0E40F00F0E80F00F080B400AF4C
:1038F0000C4B1B68DBB2062B0DD10B4B1B6803F086
:103900000F03002B07D1094B1B6803F0F003302B8A
:1039100001D1012300E000231846BD465DF8047B79
:10392000704700BFE00F00F0E40F00F0E80F00F078
:1039300080B400AF0C4B1B68DBB2062B0DD10B4BD8
:103940001B6803F00F03002B07D1094B1B6803F022
:10395000F003302B01D1012300E000231846BD46BF
:103960005DF8047B704700BFE00F00F0E40F00F04B
:10397000E80F00F080B400AF0C4B1B68DBB2062BE5
:103980000DD10B4B1B6803F00F03002B07D1094B24
:103990001B6803F0F003502B01D1012300E000234A
:1039A0001846BD465DF8047B704700BFE00F00F08D
:1039B000E40F00F0E80F00F00649074A074B9B1A96
:1039C00003DD043BC858D050FBDCFFF7BBFDFCF720
:1039D0004DFD0000743A000000000020700000203F
:1039E000FEE7FEE7FEE7FEE7FEE7FEE7FEE7FEE7AF
:1039F000FEE7FEE7F8B500BFF8BC08BC9E4670477E
:103A0000F8B500BFF8BC08BC9E4670470000002017
:103A10009800002001000000D00700000200000014
:103A20007001002090010020C00100200D00000066
:103A30000E0000000F000000100000000D00030049
:103A4000F52800000E000300F52800000F00030019
:103A5000F528000010000300F52800000100000018
:0C3A6000D0070000020000000000000081
:083A6C0000CAFF7F0100000009
:103A74000000000000000000000000000000000042
:103A84000000000000000000000000000000000032
:103A94000000000000000000000000000000000022
:103AA4000000000000000000000000000000000012
:103AB4000000000000000000000000000000000002
:103AC40000000000000000000000000000000000F2
:103AD4000090D00325040000010400000000000051
:04000003000039B907
:00000001FF
